{
  "_format": "hh-sol-artifact-1",
  "contractName": "BCUToken",
  "sourceName": "contracts/BCUToken.sol",
  "abi": [
    {
      "inputs": [],
      "stateMutability": "nonpayable",
      "type": "constructor"
    },
    {
      "inputs": [
        {
          "internalType": "address",
          "name": "spender",
          "type": "address"
        },
        {
          "internalType": "uint256",
          "name": "allowance",
          "type": "uint256"
        },
        {
          "internalType": "uint256",
          "name": "needed",
          "type": "uint256"
        }
      ],
      "name": "ERC20InsufficientAllowance",
      "type": "error"
    },
    {
      "inputs": [
        {
          "internalType": "address",
          "name": "sender",
          "type": "address"
        },
        {
          "internalType": "uint256",
          "name": "balance",
          "type": "uint256"
        },
        {
          "internalType": "uint256",
          "name": "needed",
          "type": "uint256"
        }
      ],
      "name": "ERC20InsufficientBalance",
      "type": "error"
    },
    {
      "inputs": [
        {
          "internalType": "address",
          "name": "approver",
          "type": "address"
        }
      ],
      "name": "ERC20InvalidApprover",
      "type": "error"
    },
    {
      "inputs": [
        {
          "internalType": "address",
          "name": "receiver",
          "type": "address"
        }
      ],
      "name": "ERC20InvalidReceiver",
      "type": "error"
    },
    {
      "inputs": [
        {
          "internalType": "address",
          "name": "sender",
          "type": "address"
        }
      ],
      "name": "ERC20InvalidSender",
      "type": "error"
    },
    {
      "inputs": [
        {
          "internalType": "address",
          "name": "spender",
          "type": "address"
        }
      ],
      "name": "ERC20InvalidSpender",
      "type": "error"
    },
    {
      "inputs": [
        {
          "internalType": "address",
          "name": "owner",
          "type": "address"
        }
      ],
      "name": "OwnableInvalidOwner",
      "type": "error"
    },
    {
      "inputs": [
        {
          "internalType": "address",
          "name": "account",
          "type": "address"
        }
      ],
      "name": "OwnableUnauthorizedAccount",
      "type": "error"
    },
    {
      "anonymous": false,
      "inputs": [
        {
          "indexed": true,
          "internalType": "address",
          "name": "owner",
          "type": "address"
        },
        {
          "indexed": true,
          "internalType": "address",
          "name": "spender",
          "type": "address"
        },
        {
          "indexed": false,
          "internalType": "uint256",
          "name": "value",
          "type": "uint256"
        }
      ],
      "name": "Approval",
      "type": "event"
    },
    {
      "anonymous": false,
      "inputs": [
        {
          "indexed": true,
          "internalType": "address",
          "name": "previousOwner",
          "type": "address"
        },
        {
          "indexed": true,
          "internalType": "address",
          "name": "newOwner",
          "type": "address"
        }
      ],
      "name": "OwnershipTransferred",
      "type": "event"
    },
    {
      "anonymous": false,
      "inputs": [
        {
          "indexed": true,
          "internalType": "address",
          "name": "from",
          "type": "address"
        },
        {
          "indexed": true,
          "internalType": "address",
          "name": "to",
          "type": "address"
        },
        {
          "indexed": false,
          "internalType": "uint256",
          "name": "value",
          "type": "uint256"
        }
      ],
      "name": "Transfer",
      "type": "event"
    },
    {
      "inputs": [
        {
          "internalType": "address",
          "name": "owner",
          "type": "address"
        },
        {
          "internalType": "address",
          "name": "spender",
          "type": "address"
        }
      ],
      "name": "allowance",
      "outputs": [
        {
          "internalType": "uint256",
          "name": "",
          "type": "uint256"
        }
      ],
      "stateMutability": "view",
      "type": "function"
    },
    {
      "inputs": [
        {
          "internalType": "address",
          "name": "spender",
          "type": "address"
        },
        {
          "internalType": "uint256",
          "name": "value",
          "type": "uint256"
        }
      ],
      "name": "approve",
      "outputs": [
        {
          "internalType": "bool",
          "name": "",
          "type": "bool"
        }
      ],
      "stateMutability": "nonpayable",
      "type": "function"
    },
    {
      "inputs": [
        {
          "internalType": "address",
          "name": "account",
          "type": "address"
        }
      ],
      "name": "balanceOf",
      "outputs": [
        {
          "internalType": "uint256",
          "name": "",
          "type": "uint256"
        }
      ],
      "stateMutability": "view",
      "type": "function"
    },
    {
      "inputs": [],
      "name": "decimals",
      "outputs": [
        {
          "internalType": "uint8",
          "name": "",
          "type": "uint8"
        }
      ],
      "stateMutability": "view",
      "type": "function"
    },
    {
      "inputs": [
        {
          "internalType": "address",
          "name": "student",
          "type": "address"
        }
      ],
      "name": "getStudentBalance",
      "outputs": [
        {
          "internalType": "uint256",
          "name": "",
          "type": "uint256"
        }
      ],
      "stateMutability": "view",
      "type": "function"
    },
    {
      "inputs": [
        {
          "internalType": "address",
          "name": "",
          "type": "address"
        },
        {
          "internalType": "uint256",
          "name": "",
          "type": "uint256"
        }
      ],
      "name": "hasCheckedIn",
      "outputs": [
        {
          "internalType": "bool",
          "name": "",
          "type": "bool"
        }
      ],
      "stateMutability": "view",
      "type": "function"
    },
    {
      "inputs": [],
      "name": "name",
      "outputs": [
        {
          "internalType": "string",
          "name": "",
          "type": "string"
        }
      ],
      "stateMutability": "view",
      "type": "function"
    },
    {
      "inputs": [],
      "name": "owner",
      "outputs": [
        {
          "internalType": "address",
          "name": "",
          "type": "address"
        }
      ],
      "stateMutability": "view",
      "type": "function"
    },
    {
      "inputs": [
        {
          "internalType": "address",
          "name": "student",
          "type": "address"
        },
        {
          "internalType": "uint256",
          "name": "sessionId",
          "type": "uint256"
        }
      ],
      "name": "recordAttendance",
      "outputs": [],
      "stateMutability": "nonpayable",
      "type": "function"
    },
    {
      "inputs": [],
      "name": "renounceOwnership",
      "outputs": [],
      "stateMutability": "nonpayable",
      "type": "function"
    },
    {
      "inputs": [
        {
          "internalType": "address",
          "name": "student",
          "type": "address"
        },
        {
          "internalType": "uint256",
          "name": "grade",
          "type": "uint256"
        }
      ],
      "name": "rewardAcademicPerformance",
      "outputs": [],
      "stateMutability": "nonpayable",
      "type": "function"
    },
    {
      "inputs": [],
      "name": "symbol",
      "outputs": [
        {
          "internalType": "string",
          "name": "",
          "type": "string"
        }
      ],
      "stateMutability": "view",
      "type": "function"
    },
    {
      "inputs": [],
      "name": "totalSupply",
      "outputs": [
        {
          "internalType": "uint256",
          "name": "",
          "type": "uint256"
        }
      ],
      "stateMutability": "view",
      "type": "function"
    },
    {
      "inputs": [
        {
          "internalType": "address",
          "name": "to",
          "type": "address"
        },
        {
          "internalType": "uint256",
          "name": "value",
          "type": "uint256"
        }
      ],
      "name": "transfer",
      "outputs": [
        {
          "internalType": "bool",
          "name": "",
          "type": "bool"
        }
      ],
      "stateMutability": "nonpayable",
      "type": "function"
    },
    {
      "inputs": [
        {
          "internalType": "address",
          "name": "from",
          "type": "address"
        },
        {
          "internalType": "address",
          "name": "to",
          "type": "address"
        },
        {
          "internalType": "uint256",
          "name": "value",
          "type": "uint256"
        }
      ],
      "name": "transferFrom",
      "outputs": [
        {
          "internalType": "bool",
          "name": "",
          "type": "bool"
        }
      ],
      "stateMutability": "nonpayable",
      "type": "function"
    },
    {
      "inputs": [
        {
          "internalType": "address",
          "name": "newOwner",
          "type": "address"
        }
      ],
      "name": "transferOwnership",
      "outputs": [],
      "stateMutability": "nonpayable",
      "type": "function"
    }
  ],
  "bytecode": "0x60806040523480156200001157600080fd5b50336040518060400160405280600981526020017f42435520546f6b656e00000000000000000000000000000000000000000000008152506040518060400160405280600381526020017f4243550000000000000000000000000000000000000000000000000000000000815250816003908162000090919062000472565b508060049081620000a2919062000472565b505050600073ffffffffffffffffffffffffffffffffffffffff168173ffffffffffffffffffffffffffffffffffffffff16036200011a5760006040517f1e4fbdf70000000000000000000000000000000000000000000000000000000081526004016200011191906200059e565b60405180910390fd5b6200012b816200013260201b60201c565b50620005bb565b6000600560009054906101000a900473ffffffffffffffffffffffffffffffffffffffff16905081600560006101000a81548173ffffffffffffffffffffffffffffffffffffffff021916908373ffffffffffffffffffffffffffffffffffffffff1602179055508173ffffffffffffffffffffffffffffffffffffffff168173ffffffffffffffffffffffffffffffffffffffff167f8be0079c531659141344cd1fd0a4f28419497f9722a3daafe3b4186f6b6457e060405160405180910390a35050565b600081519050919050565b7f4e487b7100000000000000000000000000000000000000000000000000000000600052604160045260246000fd5b7f4e487b7100000000000000000000000000000000000000000000000000000000600052602260045260246000fd5b600060028204905060018216806200027a57607f821691505b60208210810362000290576200028f62000232565b5b50919050565b60008190508160005260206000209050919050565b60006020601f8301049050919050565b600082821b905092915050565b600060088302620002fa7fffffffffffffffffffffffffffffffffffffffffffffffffffffffffffffffff82620002bb565b620003068683620002bb565b95508019841693508086168417925050509392505050565b6000819050919050565b6000819050919050565b6000620003536200034d62000347846200031e565b62000328565b6200031e565b9050919050565b6000819050919050565b6200036f8362000332565b620003876200037e826200035a565b848454620002c8565b825550505050565b600090565b6200039e6200038f565b620003ab81848462000364565b505050565b5b81811015620003d357620003c760008262000394565b600181019050620003b1565b5050565b601f8211156200042257620003ec8162000296565b620003f784620002ab565b8101602085101562000407578190505b6200041f6200041685620002ab565b830182620003b0565b50505b505050565b600082821c905092915050565b6000620004476000198460080262000427565b1980831691505092915050565b600062000462838362000434565b9150826002028217905092915050565b6200047d82620001f8565b67ffffffffffffffff81111562000499576200049862000203565b5b620004a5825462000261565b620004b2828285620003d7565b600060209050601f831160018114620004ea5760008415620004d5578287015190505b620004e1858262000454565b86555062000551565b601f198416620004fa8662000296565b60005b828110156200052457848901518255600182019150602085019450602081019050620004fd565b8683101562000544578489015162000540601f89168262000434565b8355505b6001600288020188555050505b505050505050565b600073ffffffffffffffffffffffffffffffffffffffff82169050919050565b6000620005868262000559565b9050919050565b620005988162000579565b82525050565b6000602082019050620005b560008301846200058d565b92915050565b61178280620005cb6000396000f3fe608060405234801561001057600080fd5b50600436106101005760003560e01c806371562acd11610097578063a9059cbb11610066578063a9059cbb146102b1578063d0b70087146102e1578063dd62ed3e146102fd578063f2fde38b1461032d57610100565b806371562acd146102295780638da5cb5b1461024557806395d89b4114610263578063a6ea10511461028157610100565b806323b872dd116100d357806323b872dd146101a1578063313ce567146101d157806370a08231146101ef578063715018a61461021f57610100565b806306fdde031461010557806308b9ddd814610123578063095ea7b31461015357806318160ddd14610183575b600080fd5b61010d610349565b60405161011a91906110b8565b60405180910390f35b61013d6004803603810190610138919061113d565b6103db565b60405161014a9190611183565b60405180910390f35b61016d600480360381019061016891906111ca565b61040b565b60405161017a9190611225565b60405180910390f35b61018b61042e565b6040516101989190611183565b60405180910390f35b6101bb60048036038101906101b69190611240565b610438565b6040516101c89190611225565b60405180910390f35b6101d9610467565b6040516101e691906112af565b60405180910390f35b6102096004803603810190610204919061113d565b610470565b6040516102169190611183565b60405180910390f35b6102276104b8565b005b610243600480360381019061023e91906111ca565b6104cc565b005b61024d610608565b60405161025a91906112d9565b60405180910390f35b61026b610632565b60405161027891906110b8565b60405180910390f35b61029b600480360381019061029691906111ca565b6106c4565b6040516102a89190611225565b60405180910390f35b6102cb60048036038101906102c691906111ca565b6106f3565b6040516102d89190611225565b60405180910390f35b6102fb60048036038101906102f691906111ca565b610716565b005b610317600480360381019061031291906112f4565b6107ad565b6040516103249190611183565b60405180910390f35b6103476004803603810190610342919061113d565b610834565b005b60606003805461035890611363565b80601f016020809104026020016040519081016040528092919081815260200182805461038490611363565b80156103d15780601f106103a6576101008083540402835291602001916103d1565b820191906000526020600020905b8154815290600101906020018083116103b457829003601f168201915b5050505050905090565b60006103e5610467565b600a6103f191906114f6565b6103fa83610470565b6104049190611570565b9050919050565b6000806104166108ba565b90506104238185856108c2565b600191505092915050565b6000600254905090565b6000806104436108ba565b90506104508582856108d4565b61045b858585610969565b60019150509392505050565b60006012905090565b60008060008373ffffffffffffffffffffffffffffffffffffffff1673ffffffffffffffffffffffffffffffffffffffff168152602001908152602001600020549050919050565b6104c0610a5d565b6104ca6000610ae4565b565b6104d4610a5d565b600660008373ffffffffffffffffffffffffffffffffffffffff1673ffffffffffffffffffffffffffffffffffffffff168152602001908152602001600020600082815260200190815260200160002060009054906101000a900460ff1615610572576040517f08c379a000000000000000000000000000000000000000000000000000000000815260040161056990611613565b60405180910390fd5b6001600660008473ffffffffffffffffffffffffffffffffffffffff1673ffffffffffffffffffffffffffffffffffffffff168152602001908152602001600020600083815260200190815260200160002060006101000a81548160ff021916908315150217905550610604826105e7610467565b600a6105f391906114f6565b600a6105ff9190611633565b610baa565b5050565b6000600560009054906101000a900473ffffffffffffffffffffffffffffffffffffffff16905090565b60606004805461064190611363565b80601f016020809104026020016040519081016040528092919081815260200182805461066d90611363565b80156106ba5780601f1061068f576101008083540402835291602001916106ba565b820191906000526020600020905b81548152906001019060200180831161069d57829003601f168201915b5050505050905090565b60066020528160005260406000206020528060005260406000206000915091509054906101000a900460ff1681565b6000806106fe6108ba565b905061070b818585610969565b600191505092915050565b61071e610a5d565b60018110158015610730575060648111155b61076f576040517f08c379a0000000000000000000000000000000000000000000000000000000008152600401610766906116c1565b60405180910390fd5b6000600a8261077e9190611633565b90506107a88361078c610467565b600a61079891906114f6565b836107a39190611633565b610baa565b505050565b6000600160008473ffffffffffffffffffffffffffffffffffffffff1673ffffffffffffffffffffffffffffffffffffffff16815260200190815260200160002060008373ffffffffffffffffffffffffffffffffffffffff1673ffffffffffffffffffffffffffffffffffffffff16815260200190815260200160002054905092915050565b61083c610a5d565b600073ffffffffffffffffffffffffffffffffffffffff168173ffffffffffffffffffffffffffffffffffffffff16036108ae5760006040517f1e4fbdf70000000000000000000000000000000000000000000000000000000081526004016108a591906112d9565b60405180910390fd5b6108b781610ae4565b50565b600033905090565b6108cf8383836001610c2c565b505050565b60006108e084846107ad565b90507fffffffffffffffffffffffffffffffffffffffffffffffffffffffffffffffff8110156109635781811015610953578281836040517ffb8f41b200000000000000000000000000000000000000000000000000000000815260040161094a939291906116e1565b60405180910390fd5b61096284848484036000610c2c565b5b50505050565b600073ffffffffffffffffffffffffffffffffffffffff168373ffffffffffffffffffffffffffffffffffffffff16036109db5760006040517f96c6fd1e0000000000000000000000000000000000000000000000000000000081526004016109d291906112d9565b60405180910390fd5b600073ffffffffffffffffffffffffffffffffffffffff168273ffffffffffffffffffffffffffffffffffffffff1603610a4d5760006040517fec442f05000000000000000000000000000000000000000000000000000000008152600401610a4491906112d9565b60405180910390fd5b610a58838383610e03565b505050565b610a656108ba565b73ffffffffffffffffffffffffffffffffffffffff16610a83610608565b73ffffffffffffffffffffffffffffffffffffffff1614610ae257610aa66108ba565b6040517f118cdaa7000000000000000000000000000000000000000000000000000000008152600401610ad991906112d9565b60405180910390fd5b565b6000600560009054906101000a900473ffffffffffffffffffffffffffffffffffffffff16905081600560006101000a81548173ffffffffffffffffffffffffffffffffffffffff021916908373ffffffffffffffffffffffffffffffffffffffff1602179055508173ffffffffffffffffffffffffffffffffffffffff168173ffffffffffffffffffffffffffffffffffffffff167f8be0079c531659141344cd1fd0a4f28419497f9722a3daafe3b4186f6b6457e060405160405180910390a35050565b600073ffffffffffffffffffffffffffffffffffffffff168273ffffffffffffffffffffffffffffffffffffffff1603610c1c5760006040517fec442f05000000000000000000000000000000000000000000000000000000008152600401610c1391906112d9565b60405180910390fd5b610c2860008383610e03565b5050565b600073ffffffffffffffffffffffffffffffffffffffff168473ffffffffffffffffffffffffffffffffffffffff1603610c9e5760006040517fe602df05000000000000000000000000000000000000000000000000000000008152600401610c9591906112d9565b60405180910390fd5b600073ffffffffffffffffffffffffffffffffffffffff168373ffffffffffffffffffffffffffffffffffffffff1603610d105760006040517f94280d62000000000000000000000000000000000000000000000000000000008152600401610d0791906112d9565b60405180910390fd5b81600160008673ffffffffffffffffffffffffffffffffffffffff1673ffffffffffffffffffffffffffffffffffffffff16815260200190815260200160002060008573ffffffffffffffffffffffffffffffffffffffff1673ffffffffffffffffffffffffffffffffffffffff168152602001908152602001600020819055508015610dfd578273ffffffffffffffffffffffffffffffffffffffff168473ffffffffffffffffffffffffffffffffffffffff167f8c5be1e5ebec7d5bd14f71427d1e84f3dd0314c0f7b2291e5b200ac8c7c3b92584604051610df49190611183565b60405180910390a35b50505050565b600073ffffffffffffffffffffffffffffffffffffffff168373ffffffffffffffffffffffffffffffffffffffff1603610e55578060026000828254610e499190611718565b92505081905550610f28565b60008060008573ffffffffffffffffffffffffffffffffffffffff1673ffffffffffffffffffffffffffffffffffffffff16815260200190815260200160002054905081811015610ee1578381836040517fe450d38c000000000000000000000000000000000000000000000000000000008152600401610ed8939291906116e1565b60405180910390fd5b8181036000808673ffffffffffffffffffffffffffffffffffffffff1673ffffffffffffffffffffffffffffffffffffffff16815260200190815260200160002081905550505b600073ffffffffffffffffffffffffffffffffffffffff168273ffffffffffffffffffffffffffffffffffffffff1603610f715780600260008282540392505081905550610fbe565b806000808473ffffffffffffffffffffffffffffffffffffffff1673ffffffffffffffffffffffffffffffffffffffff168152602001908152602001600020600082825401925050819055505b8173ffffffffffffffffffffffffffffffffffffffff168373ffffffffffffffffffffffffffffffffffffffff167fddf252ad1be2c89b69c2b068fc378daa952ba7f163c4a11628f55a4df523b3ef8360405161101b9190611183565b60405180910390a3505050565b600081519050919050565b600082825260208201905092915050565b60005b83811015611062578082015181840152602081019050611047565b60008484015250505050565b6000601f19601f8301169050919050565b600061108a82611028565b6110948185611033565b93506110a4818560208601611044565b6110ad8161106e565b840191505092915050565b600060208201905081810360008301526110d2818461107f565b905092915050565b600080fd5b600073ffffffffffffffffffffffffffffffffffffffff82169050919050565b600061110a826110df565b9050919050565b61111a816110ff565b811461112557600080fd5b50565b60008135905061113781611111565b92915050565b600060208284031215611153576111526110da565b5b600061116184828501611128565b91505092915050565b6000819050919050565b61117d8161116a565b82525050565b60006020820190506111986000830184611174565b92915050565b6111a78161116a565b81146111b257600080fd5b50565b6000813590506111c48161119e565b92915050565b600080604083850312156111e1576111e06110da565b5b60006111ef85828601611128565b9250506020611200858286016111b5565b9150509250929050565b60008115159050919050565b61121f8161120a565b82525050565b600060208201905061123a6000830184611216565b92915050565b600080600060608486031215611259576112586110da565b5b600061126786828701611128565b935050602061127886828701611128565b9250506040611289868287016111b5565b9150509250925092565b600060ff82169050919050565b6112a981611293565b82525050565b60006020820190506112c460008301846112a0565b92915050565b6112d3816110ff565b82525050565b60006020820190506112ee60008301846112ca565b92915050565b6000806040838503121561130b5761130a6110da565b5b600061131985828601611128565b925050602061132a85828601611128565b9150509250929050565b7f4e487b7100000000000000000000000000000000000000000000000000000000600052602260045260246000fd5b6000600282049050600182168061137b57607f821691505b60208210810361138e5761138d611334565b5b50919050565b7f4e487b7100000000000000000000000000000000000000000000000000000000600052601160045260246000fd5b60008160011c9050919050565b6000808291508390505b600185111561141a578086048111156113f6576113f5611394565b5b60018516156114055780820291505b8081029050611413856113c3565b94506113da565b94509492505050565b60008261143357600190506114ef565b8161144157600090506114ef565b8160018114611457576002811461146157611490565b60019150506114ef565b60ff84111561147357611472611394565b5b8360020a91508482111561148a57611489611394565b5b506114ef565b5060208310610133831016604e8410600b84101617156114c55782820a9050838111156114c0576114bf611394565b5b6114ef565b6114d284848460016113d0565b925090508184048111156114e9576114e8611394565b5b81810290505b9392505050565b60006115018261116a565b915061150c83611293565b92506115397fffffffffffffffffffffffffffffffffffffffffffffffffffffffffffffffff8484611423565b905092915050565b7f4e487b7100000000000000000000000000000000000000000000000000000000600052601260045260246000fd5b600061157b8261116a565b91506115868361116a565b92508261159657611595611541565b5b828204905092915050565b7f416c726561647920636865636b656420696e20666f722074686973207365737360008201527f696f6e0000000000000000000000000000000000000000000000000000000000602082015250565b60006115fd602383611033565b9150611608826115a1565b604082019050919050565b6000602082019050818103600083015261162c816115f0565b9050919050565b600061163e8261116a565b91506116498361116a565b92508282026116578161116a565b9150828204841483151761166e5761166d611394565b5b5092915050565b7f4772616465206d757374206265206265747765656e203120616e642031303000600082015250565b60006116ab601f83611033565b91506116b682611675565b602082019050919050565b600060208201905081810360008301526116da8161169e565b9050919050565b60006060820190506116f660008301866112ca565b6117036020830185611174565b6117106040830184611174565b949350505050565b60006117238261116a565b915061172e8361116a565b925082820190508082111561174657611745611394565b5b9291505056fea2646970667358221220a3454dfaeee34c8cb9fa3fb699716b6adafa7850c4b13f437dfecaea6b44859f64736f6c63430008140033",
  "linkReferences": {},
  "deployedLinkReferences": {}
}